:020000040800F2
:1000000000000320196C0008156600081766000838
:10001000196600081B6600081D6600080000000045
:10002000000000000000000000000000414B00083C
:100030001F66000800000000D14B0008354C000886
:10004000696C0008696C0008696C0008696C00083C
:10005000696C0008696C0008696C0008696C00082C
:10006000696C0008696C0008696C0008696C00081C
:10007000696C0008696C0008696C0008696C00080C
:10008000696C0008696C0008696C0008696C0008FC
:10009000696C0008696C0008696C0008696C0008EC
:1000A000696C0008696C0008696C0008696C0008DC
:1000B000696C0008696C0008696C0008696C0008CC
:1000C000696C0008696C0008696C0008696C0008BC
:1000D000696C0008696C0008696C0008696C0008AC
:1000E000696C0008696C0008696C0008696C00089C
:1000F000696C0008696C0008696C0008696C00088C
:10010000696C0008696C0008696C0008696C00087B
:10011000696C0008696C000821660008696C0008B9
:10012000696C0008696C0008696C0008696C00085B
:10013000696C0008696C0008696C0008696C00084B
:10014000696C0008696C0008696C0008696C00083B
:10015000696C0008696C0008696C0008696C00082B
:10016000696C0008696C0008696C0008696C00081B
:10017000696C00082D660008696C0008000000002A
:10018000696C0008696C0008696C0008696C0008FB
:10019000696C0008696C0008696C0008696C0008EB
:0C01A00039660008696C0008456600081C
:1001B0000348044B834202D0034B03B118477047F6
:1001C0008000002080000020000000000548064B51
:1001D0001B1AD90F01EBA301491002D0034B03B145
:1001E00018477047800000208000002000000000B9
:1001F00010B5064C237843B9FFF7DAFF044B13B16F
:100200000448AFF300800123237010BD800000205C
:10021000000000006C6C000808B5044B1BB10449D9
:100220000448AFF30080BDE80840CFE700000000BD
:10023000840000206C6C000870B50F4B0F4DAB4272
:10024000A3EB050607D0B610002455F8043B013493
:100250009847A642F9D806F009FD094D094B5E1BE7
:10026000AB424FEAA60606D0002455F8043B013401
:100270009847A642F9D870BD186D0008186D00089F
:10028000186D00081C6D0008830730B547D0541E58
:10029000002A3ED0CAB2034601E0013C39D303F83C
:1002A000012B9D07F9D1032C2CD9CDB205EB0525E7
:1002B0000F2C05EB054535D9A4F1100222F00F0CE7
:1002C00003F1100EE6444FEA121C1A46C2E900552B
:1002D000C2E9025510327245F8D10CF1010214F056
:1002E0000C0F03EB021204F00F0C13D0ACF104035B
:1002F00023F003030433134442F8045B9342FBD11D
:100300000CF003042CB1C9B21C4403F8011BA34236
:10031000FBD130BD64461346002CF4D1F9E7034607
:100320001446C0E71A46A446E0E700BF70B5104E79
:10033000336805460C46B3B12146284600F0FCF868
:10034000431C0CD0C41C24F00304A04205D0211A85
:10035000284600F0F1F8013001D0204670BD4FF082
:10036000FF34204670BD194600F0E6F83060E3E740
:10037000D80100202DE9F843CD1C25F003050835F0
:100380000C2D38BF0C25002D064618DBA94216D8C7
:10039000DFF8DC8000F0CCF8D8F80420A2B11446D5
:1003A00003E0636822467BB11C4623685B1BF8D4DC
:1003B0000B2B1FD89442636854D053600CE00C237D
:1003C00033600020BDE8F88329463046FFF7AEFFD2
:1003D000431C044619D00560304600F0ABF804F128
:1003E0000B00231D20F00700C21A1CBF1B1AA350CC
:1003F000BDE8F88361199442256014BF5160C8F8C4
:100400000410635163684B60E6E7D8F804701FB3CB
:100410003C467F68002FFBD123683946304604EB09
:10042000030900F089F8814516D12368ED1A2946A1
:100430003046FFF77BFF01300ED02368D8F8042048
:100440002B442360536883B1A34203D01A465B68F0
:100450009C42FBD10023B0E70C233360304600F010
:1004600069F8AEE7C8F80430B6E7C8F80470B3E737
:10047000D8010020002950D038B551F8043C0C1F99
:10048000002BB8BFE418054600F052F8274A13685D
:100490002BB1A3420CD92168601883422CD0636031
:1004A00028461460BDE8384000F044B8A3420FD895
:1004B0001A465B68002BF9D111685018844217D096
:1004C0002CD3636054602846BDE8384000F032B851
:1004D00011685018A04214D020D8216860188342B7
:1004E000EFD118685B680844C4E900035460EAE788
:1004F00023680B441360E6E718685B6808442060D3
:10050000CDE720680144501883421160DBD1D3E964
:1005100000040144C2E90014D5E770470C232B60A6
:100520002846BDE8384000F005B800BFDC010020D7
:10053000704700BF704700BF38B5074D0022044622
:1005400008462A6006F048FB431C00D038BD2B68E3
:10055000002BFBD0236038BDE001002053B94AB91D
:10056000002908BF00281CBF4FF0FF314FF0FF30BB
:1005700000F06AB9ADF1080C6DE904CE00F006F8A0
:10058000DDF804E0DDE9022304B070472DE9F0470F
:10059000089D0E4604460F46002B4AD194468C45D2
:1005A000B2FA82F260D942B1C2F12003974020FA38
:1005B00003F30CFA02FC1F4394404FEA1C4E1FFA4F
:1005C0008CF6B7FBFEF1230C0EFB117743EA0743D1
:1005D00001FB06F098420AD91CEB030301F1FF3737
:1005E00080F01581984240F21281023963441B1A4F
:1005F000A4B2B3FBFEF00EFB103344EA034400FB4D
:1006000006F6A6420AD91CEB040400F1FF3380F081
:100610000081A64240F2FD806444023840EA014075
:10062000A41B00211DB1D4400023C5E90043BDE84F
:10063000F0878B4205D90DB1C5E9000100210846BC
:10064000F5E7B3FA83F1002946D1B34202D38242DF
:1006500000F2F580841A66EB030201201746002D94
:10066000E5D0C5E90047E2E7002A40F09380A1EB1E
:100670000C034FEA1C471FFA8CFE0121B3FBF7F66F
:1006800007FB1630230C43EA00430EFB06F09842AA
:1006900008D91CEB030306F1FF3802D2984200F29E
:1006A000D08046461B1AA4B2B3FBF7F007FB103309
:1006B00044EA03440EFB00FEA64508D91CEB0404E3
:1006C00000F1FF3302D2A64500F2B6801846A4EB33
:1006D0000E0440EA0640A5E7C1F120078B4022FA4C
:1006E00007FC4CEA030C06FA01FE20FA07F426FA8E
:1006F00007F344EA0E0400FA01F84FEA1C404FEAFF
:100700001449B3FBF0FE1FFA8CF600FB1E3349EAD6
:1007100003430EFB06F9994502FA01F20BD91CEBD3
:1007200003030EF1FF3A80F08580994540F2828004
:10073000AEF1020E6344A3EB0909A4B2B9FBF0F3D6
:1007400000FB139944EA094403FB06F6A64208D9C4
:100750001CEB040403F1FF3068D2A64266D9023BC9
:10076000644443EA0E40A41BA0FB02E6B442734675
:10077000B14652D34FD05DB1B8EB030264EB09042C
:1007800004FA07F722FA01F31F43CC40C5E90074CD
:1007900000214CE7C2F1200120FA01F30CFA02FC1F
:1007A00026FA01F1964033434FEA1C471FFA8CFEAC
:1007B000B1FBF7F007FB1016190C41EA064100FBEC
:1007C0000EF68E4204FA02F408D91CEB010100F186
:1007D000FF382DD28E422BD902386144891B9BB23F
:1007E000B1FBF7F607FB161143EA014306FB0EF1D6
:1007F000994208D91CEB030306F1FF3814D2994241
:1008000012D9023E63445B1A46EA004136E7394694
:10081000EDE6184602E7F045ADD2BEEB020366EB0B
:100820000C060138B146A6E74646ECE7034698E7D2
:100830004046D3E7D6467EE76444023847E7084699
:100840000DE7023E63442DE7704700BF014B186877
:10085000704700BF00000020844641EA000313F007
:1008600003036DD1403A41D351F8043B40F8043BB7
:1008700051F8043B40F8043B51F8043B40F8043B7A
:1008800051F8043B40F8043B51F8043B40F8043B6A
:1008900051F8043B40F8043B51F8043B40F8043B5A
:1008A00051F8043B40F8043B51F8043B40F8043B4A
:1008B00051F8043B40F8043B51F8043B40F8043B3A
:1008C00051F8043B40F8043B51F8043B40F8043B2A
:1008D00051F8043B40F8043B51F8043B40F8043B1A
:1008E00051F8043B40F8043B403ABDD2303211D3BA
:1008F00051F8043B40F8043B51F8043B40F8043BFA
:1009000051F8043B40F8043B51F8043B40F8043BE9
:10091000103AEDD20C3205D351F8043B40F8043BB9
:10092000043AF9D2043208D0D2071CBF11F8013BB7
:1009300000F8013B01D30B8803806046704700BF7D
:10094000082A13D38B078DD010F003038AD0C3F18C
:100950000403D21ADB071CBF11F8013B00F8013B6E
:1009600080D331F8023B20F8023B7BE7043AD9D32D
:10097000013A11F8013B00F8013BF9D20B78037002
:100980004B7843708B78837060467047024B01460A
:100990001868FFF7EFBC00BF00000020024B0146C3
:1009A0001868FFF767BD00BF00000020034AD2F8B7
:1009B000883043F47003C2F88830704700ED00E0DF
:1009C00090F83D30012B30D1022380F83D30036890
:1009D000DA6842F00102DA60154A93421AD0B3F1A4
:1009E000804F17D0A2F57C42934213D002F580626B
:1009F00093420FD002F5806293420BD002F5784209
:100A0000934207D002F57052934203D0A2F594327C
:100A1000934204D19A6802F00702062A03D01A68AA
:100A200042F001021A60002070470120704700BFA9
:100A3000000001407047704770477047036870B509
:100A4000DD681E69B10704460DD5AA070BD56FF006
:100A500002021A61012202779B699B0769D0FFF7A6
:100A6000EAFF00232377710710D56A070ED52368A4
:100A70006FF004021A61022222779B6913F4407F0F
:100A800020465CD0FFF7D7FF0023237733070FD52D
:100A900028070DD523686FF008021A610422227717
:100AA000DB699907204650D0FFF7C5FF0023237765
:100AB000F20610D5EB060ED523686FF010021A610E
:100AC00008222277DB6913F4407F204643D0FFF7EA
:100AD000B2FF00232377F00708D5E90706D523687E
:100AE0006FF001021A61204605F078FD320608D544
:100AF0002B0606D523686FF080021A61204600F0AD
:100B000094F9700608D5690606D523686FF040028F
:100B10001A612046FFF791FFB20622D5AB0620D519
:100B200023686FF0200220461A61BDE8704000F093
:100B30007BB9FFF77FFF2046FFF77EFF91E7FFF7C6
:100B400079FF2046FFF778FF9EE7FFF773FF204607
:100B5000FFF772FFAAE7FFF76DFF2046FFF76CFF74
:100B6000B7E770BD274A0368904212D0B0F1804FBA
:100B70000FD0A2F57C4290420BD002F580629042E9
:100B800007D002F58062904203D002F5784290428D
:100B900008D14A6823F070031343CA6823F44073F2
:100BA000134316E0184A9042F7D002F58062904253
:100BB000F3D002F580629042EFD0A2F598329042D5
:100BC000EBD002F580629042E7D002F5806290425D
:100BD000E3D04A6923F0800313438A68C2620A683B
:100BE0008262084A904203D002F58062904201D1AD
:100BF0000A690263026842F0040202600122426153
:100C000003607047000001400040014010B50446F9
:100C100030B390F83D3003F0FF021BB980F83C2060
:100C200005F0D0FE0223206884F83D30211DFFF737
:100C300099FF012384F84630002084F83E3084F880
:100C40003F3084F8403084F8413084F8423084F8F2
:100C5000433084F8443084F8453084F83D3010BD8A
:100C60000120FCE710B584680A4324F47F4442EA7B
:100C700003222243826010BD38B590F83C30012B2E
:100C800004464FF0020000F08E8084F83D000122FF
:100C9000206884F83C20836823F47F4323F07703A3
:100CA00083600B68602B4FD032D8402B64D016D8AD
:100CB000202B0DD00AD833F0100109D0012384F87D
:100CC0003D30002384F83C30104638BD302BF5D140
:100CD000826822F07002134343F0070328E0502B90
:100CE000ECD14A68CD68016A036A23F0010303620C
:100CF000836921F00A0123F0F00343EA05130A4354
:100D000083610262836823F0700343F057030FE0AE
:100D1000B3F5805F0DD0B3F5005F0CD0702BCDD153
:100D2000CB68D1E90121FFF79DFF836843F077038A
:100D300083600022C2E7CB68D1E90121FFF792FF6F
:100D4000836843F48043F3E7036A026A4D68C96825
:100D500022F010020262826923F0A00322F47042A2
:100D600043EA051342EA013282610362836823F099
:100D7000700343F06703DBE74A68CD68016A036AE2
:100D800023F001030362836921F00A0123F0F003D9
:100D900043EA05130A4383610262836823F0700308
:100DA00043F04703C4E702468EE7000030B590F8F1
:100DB0003C30012B02464FF0020032D0136882F81B
:100DC0003D005C680D68986824F070042C435C60FA
:100DD000144CA3421AD0B3F1804F17D0A4F57C4431
:100DE000A34213D004F58064A3420FD004F58064BD
:100DF000A3420BD004F57844A34207D004F5705405
:100E0000A34203D0A4F59434A34204D1496820F04E
:100E10008000014399600123002082F83D3082F870
:100E20003C0030BD000001407047704710B590F89D
:100E3000D433012B044609D0012380F8D433006851
:100E400001F035F8002084F8D40310BD0220FCE73F
:100E500037B5044608B390F8D533056803F0FF02B0
:100E60001BB980F8D42305F02DF80323B5F1A04F6A
:100E700084F8D53304BF0023A371206800F0EFFD90
:100E8000237C8DF80030251D95E80E00206800F0C9
:100E90009CFD28B1022384F8D533012003B030BD76
:100EA0002068012100F0E1FD0028F3D1237C8DF8BA
:100EB000003095E80E00206800F090FE0028E9D18F
:100EC000012384F8D533E9E7F0B43C2606FB01069C
:100ED0009DF81070059DBDF818409DF81CC0F27576
:100EE00086F826307FB90327022B86F82A7086F809
:100EF00019C042D0BB4240D0012B1ED13C2303FB82
:100F0000010300222EE04FF0020C86F82AC0032BCA
:100F100013D801A656F823F0290F0008FD0E00088B
:100F20007B0F00087B0F0008012F06D13C2303FB39
:100F30000103D2B994B983F83D703C2202FB01034E
:100F40005C6300245975A3F84C40DD629C6319462C
:100F500082790068F0BC143101F024B893F83D6048
:100F6000002EEAD183F82A20E7E79A7E012AE4D10D
:100F700093F83C20002AE0D1F4E73C2303FB010373
:100F80002AB993F83D60002EECD00222EAE793F8EC
:100F90003C20002AF9D1E5E72DE9F04F046885B03F
:100FA0000546204600F015FE012840F0F98028682B
:100FB00000F002FE002800F0F380286800F0FCFD3D
:100FC000860248BF2B68286844BF4FF400125A615C
:100FD00000F0F2FDC00248BF2B68286844BF4FF400
:100FE00080125A6100F0E8FD410148BF2B68286873
:100FF00044BF4FF080625A6100F0DEFD820748BFB7
:101000002B68286844BF02225A6100F0D5FD830096
:1010100018D52B684FF000525A61D4F84034DF07DE
:1010200010D41021204600F050FD204600F070FD45
:101030006B7A022B03D12868012100F03FFE28467D
:1010400004F090FF286800F0B7FDC6013DD52E687A
:10105000D6F840340293D6F840340393039B23F030
:101060002E030393029B980709D5029BD90702D54B
:10107000284604F073FF039B43F002030393029B93
:101080001A0718D5039B43F008030393029B5B07E1
:1010900040F19180697A022940F08580029B28689E
:1010A00003F4C023B3F5802F18BF012100F006FE22
:1010B000284604F05FFF029B9F0642BF039B43F05C
:1010C00020030393039BC6F84034286800F074FDA6
:1010D000000705D5284604F03DFF2B6808225A6119
:1010E000286800F069FD810111D5286800F0DAFE5A
:1010F000AA46009004F5A0684FF000094FF0070BD6
:101100006A792C684A455AD84FF0007363612868A1
:1011100000F052FDC30643D52E68B36923F01003D7
:10112000B361376A07F4F013B3F5802F33D1C7F3F7
:101130000A18B8F1000F2ED007F00F073C2404FB6B
:101140000754E16A39B3A36B626B4344934200F2E4
:1011500082834246304600F00FFDE36A4344E36277
:10116000A36B4344A36306F5A066238D7A0106EBC7
:101170004717984539690ED1BC4B0B405BB1B3584A
:1011800023F0804343F00043B35094F83C3083F0A5
:10119000010384F83C302A68936943F0100393619B
:1011A00005B0BDE8F08FEB79012B04BF4EF660224D
:1011B000C6F804247CE7284604F0E0FE7BE7009BA9
:1011C00009F00F0223FA02F2D2072AD5D8F800203C
:1011D0005FFA89F613044FEA49173146204640F179
:1011E000BD8100F0EDFC400722D504F5A0623A4431
:1011F000042393608AF84DB02868314600F057FE0A
:101200002868314600F0DCFC10F4007248D004F588
:10121000A064286831463C4400F049FE4FF4007356
:10122000A36009F101090AF13C0A08F1200867E707
:101230003146286800F0C4FCC10509D504F5A06258
:101240003A444FF48071916008228AF84D20D3E728
:101250002868314600F0B4FC020706D504F5A06208
:101260003A44082191600622EFE72868314600F0F1
:10127000A7FC430507D504F5A0623A444FF480610A
:1012800091600922E1E72868314600F099FC0006E8
:10129000B6D504F5A0623A44802191600722D4E7D4
:1012A00031462868019200F08BFCC1074FD504F548
:1012B000A061CC192020A0609AF81B00019A012897
:1012C00001BF8AF81B20626822F480326260AA792A
:1012D0003AB12069DAF83020C0F31200121ACAF8C5
:1012E000382001200022CAF844208AF84D00A0606E
:1012F0009AF82620032A09D8DFE802F0021D021D11
:101300002868314600F0D3FD1022A260AA79012A94
:101310000AD1DAF83820BAF82810013A0A44B2FBA8
:10132000F1F2D2077FF57DAF9AF83C2082F00102FE
:101330008AF83C2075E7CA5942F00052CA518AF82F
:101340004C0001223146284604F010FEDEE72868F2
:10135000314600F035FC830613D504F5A0643C4407
:101360002022A2609AF81A202868012A7FF459AF37
:101370008AF81B2003228AF84D20314600F097FDA1
:101380004FE72868314600F01BFC800740F197804A
:1013900004F5A064E11902228A609AF84D00013830
:1013A000082800F225820FF2080C5CF820F000BF3C
:1013B000D51300082312000871140008A5140008B2
:1013C0001514000833180008E1130008AF140008D2
:1013D000E11300088AF84D2001228AF84C2007E228
:1013E000DAF844008AF84D2001300228CAF8440097
:1013F0005AD99AF81A0000220128CAF8442007D1C5
:101400008AF81B208AF81C204A6822F480324A603D
:101410000422E2E79AF81BC08AF84D20BCF1010FC4
:1014200040F0E6819AF82600032812D1DAF8480045
:1014300001300228CAF84800CFD90022CAF8482053
:101440008AF81B20DAF84420022A98BF8AF81CC0C8
:10145000DAE78AF84C2010F0FD0F40F0C981E2591C
:1014600022F0804242F00042E251C1E10000F81F48
:101470009AF81B008AF84D20012840F0B9818AF8BB
:101480004C204A6842F480324A60CA6842F0400206
:10149000CA60CA6822F02002CA609AF8262012F0B8
:1014A000FD0FDAE78AF84D208AF84C20F5E78AF834
:1014B0004D20DAF844200132CAF84420A8E7286811
:1014C000314600F07DFB10F040020FD004F5A0641F
:1014D0003C444022A26005228AF84D209AF81A2046
:1014E0000AB9CAF844202868314647E731462868D7
:1014F000019200F065FBC1067FF593AE9AF82610C5
:10150000019A032904F5A06419D1CAF844200422E1
:101510008AF84D202868314600F0C9FC9AF81B2053
:10152000012A18D1E21900218AF81B10516821F410
:1015300080315160D16841F02001D1600BE011F0A1
:10154000FD01EBD1CAF84410AA79002ADFD09AF83D
:101550001B20012ADBD03C44102293E000F030FB3A
:1015600010F0040207D004F5A0643C440423A360F7
:101570008AF84DB0B7E728680192314600F020FBA9
:10158000820630D504F5A0643C442021A1609AF87D
:101590001910019A01290BD128688AF81920022212
:1015A0008AF84C2003228AF84D20314600F07FFC57
:1015B0009AF81A20012A7FF434AE9AF81B100029F9
:1015C0007FF42FAE9AF82610012918BF8AF81B2045
:1015D00003228AF84D202868314600F068FC00227A
:1015E000CAF844201DE62868314600F0E9FA10F4F4
:1015F000007206D004F5A0643C444FF40072A2606F
:1016000071E728680192314600F0DAFAC3071FD566
:10161000019ACAF844202868314600F0D1FA04F54E
:10162000A0643C44470641BF01228AF819204022A9
:10163000A2609AF81B2032B100228AF81B2062684F
:1016400022F4803262600122A2608AF84D204AE7CB
:101650002868314600F0B4FA400615D505228AF80C
:101660004D209AF81A2012B901228AF81920002276
:10167000CAF844202868314604F5A06400F017FC3D
:101680003C444022A260CCE53146286800F098FA3C
:10169000010706D504F5A0643C440822A260062296
:1016A000D3E72868314600F08BFAC20615D5002230
:1016B000CAF8442004228AF84D209AF819202AB941
:1016C0009AF8182012B901228AF8192028683146A0
:1016D00000F0EDFB04F5A0643DE72868314600F01A
:1016E0006FFA030629D5AA7904F5A061CC1942B98D
:1016F00007228AF84D202868314600F0D8FB802266
:10170000C0E7DAF844200132022ACAF844200AD994
:101710000022CAF8442004228AF84C203146284688
:1017200004F024FCEBE702228AF84C20CA5922F08C
:10173000804242F00042CA51E1E72868314600F099
:101740003FFA40050CD509228AF84D202868314619
:1017500004F5A06400F0ABFB3C444FF4806291E7D9
:101760003146286800F02CFA81077FF55AAD04F560
:10177000A064E019022282609AF84D10013908290C
:101780003FF64FAD0FF2040C5CF821F0B1170008E2
:1017900023120008FF1700080D1800082D18000874
:1017A000331800083B180008231200083B180008F3
:1017B0008AF84D2001228AF84C209AF82620023A15
:1017C000012A15D8AA7932B99AF83D2082F001028F
:1017D0008AF83D200CE0012A0AD1DAF834203AB127
:1017E000BAF82810013A0A44B2FBF1F2D207EBD45E
:1017F0009AF84C203146284604F0B8FB11E59AF8D7
:101800001B108AF84D200129F2D1E6E58AF84D2017
:101810008AF84C209AF81B20012AE9D100228AF884
:101820001B20426822F480324260E1E78AF84D20B2
:10183000D3E58AF84D200522CFE5DAF844108AF87E
:101840004D2001310229CAF8441001D9002233E6A3
:101850008AF84C2003E6042384F84C309BE400BF54
:1018600010B590F8D433012B04460CD0012180F838
:10187000D413006800F05EFA206800F0EAF8002057
:1018800084F8D40310BD0220FCE710B590F8D433DF
:10189000012B044609D0012380F8D433006800F0FE
:1018A000B1FC002084F8D40310BD0220FCE70068DE
:1018B00000F022BA3C2303FB010090F84C00704773
:1018C0003C2303FB0100806B7047006800F05DBAA9
:1018D000006800F04FBA3C2303FB0101002048835D
:1018E000888470472DE9F04F994690F8D43385B03D
:1018F000012B9DF838A09DF83CB0BDF8407004461F
:101900000E46904637D03C2505FB0105012380F8A3
:10191000D43300236B7602F07F036975AB7585F8CD
:10192000149085F826B0FFF7D6FFD309EB75206831
:1019300000F020FABBF1010F06D1BAF1010F03D17B
:1019400010B9BC2F28BFBC273C2303FB0643BFB202
:1019500083F818A01F85CDE901B7CDF800A04B464C
:1019600020684246314600F015FA002384F8D4334B
:1019700005B0BDE8F08F0220FAE782B000230246EE
:101980000193019B01330193019BB3F1706F1AD84E
:101990001369002BF5DA0A230193019B83B91369BC
:1019A00043F001031361019B01330193019BB3F1E8
:1019B000706F08D8106910F00100F4D102B07047C0
:1019C000019B013BE8E70320F8E784B038B505AD9B
:1019D00085E80E009DF81930012B044627D1836B52
:1019E00023F480338363C36823F4840323F0400328
:1019F000C360C36823F44013C3609DF82030012BFB
:101A000002BFC36843F48013C360FFF7B6FF9DF8BD
:101A10001630012B07D1A36843F00603A360A36827
:101A200043F02003A360BDE8384004B07047C368AA
:101A300043F04003C360FFF7A0FF9DF81D3023B9BA
:101A4000A36B43F48033A363E1E7A36B23F48033F8
:101A5000F9E7836843F001038360002070478368DF
:101A600023F0010383600020704738B5C368012963
:101A700023F0C04305460C46C36014D1C36843F04D
:101A80000053C36000240A2001F04CF96B69D907A8
:101A900004F10A0402D4C82CF5D1C824A4F1C80367
:101AA0005842584138BD71B9C36843F08043C360A0
:101AB0000A2001F037F96B69DA0704F10A04EDD561
:101AC000C82CF5D1E9E70120ECE782B000230246FB
:101AD0000193019B01330193019BB3F1706F15D802
:101AE0001369002BF5DA8901002341F020010193ED
:101AF0001161019B01330193019BB3F1706F05D814
:101B0000106910F02000F4D102B070470320FBE709
:101B100082B0002302460193019B01330193019B94
:101B2000B3F1706F13D81369002BF5DA002301931A
:101B300010231361019B01330193019BB3F1706F7B
:101B400005D8106910F01000F4D102B070470320DE
:101B5000FBE710B59DF8084044B9033301329B08F8
:101B600000EB023001EB8303994201D1002010BD4C
:101B700051F8042B0260F7E7034670B50020940883
:101B800003F5805502F00302A04210D301EB84005C
:101B900062B103F580531C680023D90024FA01F1D7
:101BA000C154013399B28A42F7D1104470BD2E68F6
:101BB00041F820600130E7E74269806910407047D2
:101BC00000EB411000F5A063D0F80805DB68184071
:101BD0007047406900F001007047000084B070B5A4
:101BE000044605A880E80E000023C4F8003EA36B5D
:101BF00043F40013A363A36B23F40023A363A36B39
:101C000023F48023A363E3685B063ED49DF817307A
:101C1000012BD4F800343AD143F00403C4F8003463
:101C200010212046FFF751FF01462046FFF770FFC5
:101C30000843C0B200384FF000039DF8156018BF8C
:101C4000012004F5A0621D464FF0FF319E4221D8CD
:101C5000164BA5619C42616121D14FF40073636210
:101C600003F18073A362124BC4F800319DF8163063
:101C70001BB9A36943F01003A361A2690D4B134381
:101C8000A361BDE8704004B07047D4F8003423F07D
:101C90000403C3E791600133D5602032D6E7802387
:101CA000636203F5C003A362034BDDE70000044059
:101CB0000003E000080020A3E0004000D0F800345A
:101CC00023F0030310B5C0F80034D0F8004401F04D
:101CD00003032343012900F58062C0F8003404D1D6
:101CE0004BF680335360002010BD022902D141F22F
:101CF0007073F7E70120F7E737B500250195D0F8B5
:101D000040340193019B23F02E030193019B43F484
:101D100080730446C0F84034642001F003F8019B4E
:101D200023F48073C4F840340A2000F0FBFF2846F7
:101D300003B030BD82B000230193D0F8403401934A
:101D4000019B23F02E030193019BDA0406D40129A1
:101D500002BF019B43F48053C0F84034019BDB0475
:101D600005D521B9019B23F48053C0F840340020ED
:101D700002B0704782B000230193D0F84034019341
:101D80000198C0F3414002B0704700F58060806860
:101D900080B270472DE9F84300EB41161C469DF8D0
:101DA000245006F5A0634FF0FF379F604FFA82FC86
:101DB000032D72D8DFE805F00267021440F29D4758
:101DC000BCF1000FDF6003DADF6847F4807705E0DD
:101DD000334FB8420AD1DF6847F06007DF6005E0A3
:101DE00040F29D67BCF1000FDF60EDDB00274FF094
:101DF0000008C3F80480D3F80CE04EF0020EC3F8DC
:101E00000CE0D0F8189401F00F0101238B4043EA55
:101E10000903C0F81834836943F0007383614FEA03
:101E2000DC71FFF7A7FF9DF82030022B4FEAC1318C
:101E300004D1023818BF01204FEA4048BDF82800FD
:101E4000A305C0F30A0040EA080803F0FE53D202DB
:101E500043EA080302F4F0421343AA040B4302F4DA
:101E60004022134343F4801305F0FD05C6F8003506
:101E7000012D02BFD6F8003543F00053C6F80035F7
:101E80003846BDE8F88340F22527BCF1000FDF603B
:101E9000ACDADF6847F4C077A0E70127A7E700BF07
:101EA0000000044000F58060406980B2704773B55F
:101EB00000EB4111002301F5A0620193D1F8003538
:101EC000D1F8004555688668B6064FEA934308D5B1
:101ED000002D06DB002C01DADD0704D5002002B05E
:101EE00070BDDC072AD4D1F8003543F08043C1F837
:101EF000003583689B061AD4C36A13F47F0FD1F8A8
:101F0000003516D123F00043C1F80035D1F8003573
:101F100043F00043C1F80035019B01330193019B5D
:101F2000B3F57A7FDAD81368002BF5DBD6E7D1F862
:101F3000003543F00043C1F80035CFE7D1F8003554
:101F400043F08043C1F80035D0F8103413F47F0F0C
:101F5000D1F80035EDD123F00043C1F80035D1F8B8
:101F6000003543F00043C1F80035019B0133019374
:101F7000019BB3F57A7FB1D81368002BF5DBADE791
:101F800000EB4110064AC0F81025D0F8003523F0C8
:101F9000804343F00043C0F800350020704700BF85
:101FA000000008802DE9F043944B9842944685B098
:101FB0004A7806460C460FD1BCF1010F68D18B7CE4
:101FC00013F0FD0F08D18B7933B98D4B03EB42131E
:101FD000D96821F07001D96094F806E0E078BEF18C
:101FE000010F40F0828000285DD0A38AE3610125C3
:101FF000A17D490701F0C049E16906EB4217C1F331
:10200000120807F5A06349EA080141EAC5411961D0
:10201000BCF1000F01D0A1695961D6F80854D7F876
:10202000001521F00051C7F80015ED43D7F8001551
:102030006D0705F000550D43BEF1010F06F58068F0
:10204000C7F800557FD1657C217C41EAC51141F07C
:1020500000415960D96841F06001D960E1790129F6
:1020600008D138B95D6845F480355D60DD6845F0BC
:102070004005DD60A57C012D00F08980032D40F036
:102080008E80012940F08B80012800F0848086E05A
:102090008B88B3F5807F9FD11146FFF771FF002039
:1020A00005B0BDE8F083A17C236A012915D1E16860
:1020B000BC2B01F1FF310AD9A38A0129C4E90733F6
:1020C00002D80223E36092E7C4F80CE08FE701290D
:1020D000E3618CBF04230323F4E7BCF1010F85D136
:1020E000A18A994282D2E16181E7236A7BB1A18A08
:1020F0005D1E0D44B5FBF1F5ADB2B5F5807F28BF8F
:102100004FF4807508B1A38A6B43E36170E7012542
:10211000F8E7002843D1E168013903293FD8DFE817
:1021200001F002060A0E596841F4004136E0596890
:1021300041F00E0132E0596841F480412EE05968C7
:1021400041F440412AE0002128E023F4004332E03A
:10215000F16AD81CC0F38F0089B2884203D9B169F3
:1021600041F02001B16100210091A1699BB230468C
:10217000FFF7EFFC93E7D8F81000D91C80B2C1F349
:102180008F018842EFD2B16941F08061EAE701290D
:10219000BFD10128BDD1596841F480315960D7F8C9
:1021A00000350393039B23F080430393039B002894
:1021B000CBD043F400430393039B43F000430393CA
:1021C000039BC7F800355CEA00007FF468AF236A20
:1021D000002B3FF464AFE17900297FF460AFA17C6C
:1021E0000329C0D801A050F821F000BF51210008F8
:1021F00077210008512100087721000800000440E1
:102200000005044037B500230193836823F00103E0
:10221000836010210446FFF758FC01462046FFF773
:1022200077FC0843C0B2003804F5A06318BF012052
:1022300004F5E06519460A6822F0802242F08042E7
:1022400041F8202BA942F6D11A6822F4004242F04C
:1022500040421A60019A01320192019AB2F57A7FE6
:1022600002D81A68002AF5DB2033AB42ECD14FF0DC
:10227000FF33C4F814346361A36843F00103A3601F
:1022800003B030BD2DE9F341044640B30368DE07D7
:1022900010D423689D075BD42368190700F19D8043
:1022A00023685A0700F1BD80A369002B40F0248108
:1022B00000202CE08D4B9A6802F00C02042A07D013
:1022C0009A6802F00C02082A0BD15B68590208D503
:1022D000864B1B689A03DCD56368002BD9D101209B
:1022E00015E06368814DB3F5803F13D12B6843F44B
:1022F00080332B6000F010FD7C4E054633689B0355
:10230000C7D400F009FD401B6428F7D9032002B0B0
:10231000BDE8F081B3F5A02F04D12B6843F48023EE
:102320002B60E3E72A6822F480322A602A6822F4CC
:1023300080222A60002BDDD100F0EEFC06462B68DF
:102340009F03A6D500F0E8FC801B6428F7D9DDE7E1
:10235000664B9A6812F00C0F07D09A6802F00C02D4
:10236000082A11D15B685D020ED4604A1368990790
:1023700002D5E368012BB2D11368216923F0F80379
:1023800043EAC103136087E7E268594BB2B1012207
:102390001A6000F0C1FC554D06462B689B0707D517
:1023A0002B68226923F0F80343EAC2032B6073E72A
:1023B00000F0B2FC801B0228EFD9A7E71A6000F0FA
:1023C000ABFC4A4E054633689F077FF565AF00F0CA
:1023D000A3FC401B0228F6D998E76269444B82B1FE
:1023E0000122C3F8802E00F097FC404E0546736F23
:1023F0009B073FF555AF00F08FFC401B0228F6D934
:1024000084E7C3F8802E00F087FC384E0546736FD2
:102410009F077FF545AF00F07FFC401B0228F6D9EF
:1024200074E7324B1A6C12F0805228D101921A6C68
:1024300042F080521A641B6C03F080530193019B9D
:1024400001272C4D2B68D8051BD5A368274D012BE0
:1024500027D12B6F43F001032B6700F05DFC234E67
:10246000054641F28838336F9A0739D5002F3FF47B
:102470001BAF1E4A136C23F08053136414E700272C
:10248000DFE72B6843F480732B6000F045FC0646C1
:102490002B68D905D9D400F03FFC801B0228F7D95E
:1024A00034E7052B04D12B6F43F004032B67D0E7EF
:1024B0002A6F22F001022A672A6F22F004022A679B
:1024C000002BCAD100F028FC41F2883806462B6F59
:1024D0009B07CBD500F020FC801B4045F7D915E7C2
:1024E00000F01AFC401B4045BDD90FE70038024000
:1024F0000000474200700040374DAA6802F00C020D
:10250000082A3ED0022B354B4FF000021A662BD121
:1025100000F002FC06462B6899011FD4D4E907326B
:102520001343626A43EA8213E26A43EA0263A26ADD
:102530005208013A43EA02436B60284B264D0122C0
:102540001A6600F0E9FB04462B689A013FF5B0AE2D
:1025500000F0E2FB001B0228F6D9D7E600F0DCFB16
:10256000801B0228D7D9D1E600F0D6FB04462B68A1
:102570009B017FF59DAE00F0CFFB001B0228F6D932
:10258000C4E6012B3FF4ABAE6B68E26903F4800153
:1025900091427FF4A4AE216A03F03F028A427FF4A5
:1025A0009EAE616A47F6C0721A40B2EB811F7FF49B
:1025B00096AEA26A520803F44031013AB1EB024FE1
:1025C0007FF48DAEE26A03F07063B3EB026F14BF69
:1025D000012000209BE600BF003802400000474277
:1025E000134908B58B6803F00C03042B1CD0082B8F
:1025F0001CD14A684B68496813F4800314BF0D4826
:102600000D48C1F3881118BF002302F03F02A1FB5F
:102610000001FDF7A3FF064B5B68C3F301430133E1
:102620005B00B0FBF3F008BD0248FCE70248FAE7A4
:102630000038024000127A000024F4002DE9F04135
:102640000D46044610B90120BDE8F081434B1A68DD
:1026500002F00F028A4228D321688F072DD4C807C1
:1026600040D43E4B1A6802F00F02AA4265D8226895
:1026700051076BD4130707D5394A2169936823F4AE
:10268000604343EAC1039360FFF7AAFF344B354A26
:102690009B68C3F30313D35CD840334B1860334BB0
:1026A000186804F049FA0020CEE7CAB21A701B6815
:1026B00003F00F038B42C6D1CEE7294B11F0040F74
:1026C0001EBF9A6842F4E0529A600E0742BF9A68B1
:1026D00042F460429A609A68A06822F0F0020243D5
:1026E0009A60BCE762681E4B012A1CD11B6813F478
:1026F000003FA8D01A4EB36823F003031343B3601E
:1027000000F00AFB41F288380746B368626803F0BC
:102710000C03B3EB820FA4D000F0FEFAC01B4045BF
:10272000F3D9032090E7911E01291B6802D813F00A
:10273000007FDEE713F0020FDBE7EAB21A701B68D6
:1027400003F00F03AB427FF47EAF90E70449E068EB
:102750008B6823F4E05303438B608BE7003C02401B
:1027600000380240D46C00085000002058000020BF
:10277000044B054A9B68C3F38223D35C034A106869
:10278000D840704700380240CC6C00085000002050
:10279000044B054A9B68C3F34233D35C034A106879
:1027A000D840704700380240CC6C00085000002030
:1027B0000F2303600B4B9A6802F0030242609A6891
:1027C00002F0F00282609A6802F4E052C2609B68F4
:1027D000DB0803F4E0530361034B1B6803F00F03B2
:1027E0000B60704700380240003C0240036813F061
:1027F000430FF7B5044640F08880236813F00C0FB0
:1028000045D08C4B8C4D00221A6700F085FA0646A5
:102810002B68990000F1CB8021684A0715D5D4E9CF
:102820000403D5F888201B0602F0E04243EA801337
:102830001343C5F88830D5F88C30226A23F4F85356
:10284000013A43EA0223C5F88C300B0714D57A4AC3
:10285000A369D2F8881020691B0701F0706143EA70
:1028600080130B43C2F88830D2F88C30616A23F4AD
:1028700040330B43C2F88C306E4B6F4E01221A6707
:1028800000F04AFA054633689F0040F197802368BC
:10289000980634D500230193674B684D1A6C42F0BB
:1028A00080521A641B6C03F080530193019B2B68C8
:1028B00043F480732B6000F02FFA06462B68D8058E
:1028C00040F183805C4DA26A2B6F13F4407340F09B
:1028D0008380A36A03F44072B2F5407F564A40F009
:1028E0009E80916823F0704021F4F81120F440702C
:1028F00001439160116FC3F30B030B43136723680C
:10290000DB0600F1908000204FE04A4B4A4E002247
:102910009A6600F001FA054633681F013FD421682A
:10292000C80741BFD4E901231B0743EA8213C6F855
:1029300084308A0715D5404AE368D2F88400656878
:102940001B0600F0E04043EA85130343C2F88430DD
:10295000D2F88C00E36920F01F00013B0343C2F86A
:102960008C304B060AD5E36862681B0643EA821383
:10297000A26843EA0273304AC2F884302D4B2E4ECF
:1029800001229A6600F0C8F9054633681F013FF539
:1029900034AF00F0C1F9401B0228F6D904E000F082
:1029A000BBF9401B0228B7D9032003B0F0BD00F0EB
:1029B000B3F9801B02287FF62BAFF5E700F0ACF9E6
:1029C000401B02287FF65FAFEEE700F0A5F9801B01
:1029D00002287FF673AFE7E702F4407293423FF4B8
:1029E00078AF2B6F134A0121C2F8401E23F44073C5
:1029F0000021C2F8401E2B672B6FD9077FF569AF06
:102A000000F08AF941F2883706462B6F9A073FF5A6
:102A100060AF00F081F9801BB842F6D9C4E7916835
:102A200021F4F81165E7064B94F82C20C3F8E02157
:102A300069E700BF000047420038024000700040D4
:102A4000001047422DE9F74FDFF8BC916C4A002394
:102A50000D6801249C4004EA0506AC4340F0B780B1
:102A60004D68032705F003044FEA430807FA08FC02
:102A7000671E012F6FEA0C0C34D8876807EA0C0E2A
:102A8000CF6807FA08F747EA0E078760476827EA22
:102A9000060EC5F300179F4047EA0E074760C76858
:102AA00007EA0C0E8F6807FA08F747EA0E07022CB0
:102AB000C76019D14FEAD30A00EB8A0A03F0070B6B
:102AC000DAF820704FEA8B0B4FF00F0E0EFA0BFE68
:102AD00027EA0E0E0F6907FA0BF747EA0E07CAF846
:102AE000207001E0032CDAD1076804FA08F407EA41
:102AF0000C073C4315F4403F046068D00024019467
:102B0000D9F8444044F48044C9F84440D9F84440DA
:102B100023F0030707F1804704F4804407F59C374E
:102B2000019403F0030C019CD7F808E04FEA8C0CE9
:102B30000F2404FA0CF42EEA040E324CA0424DD0BD
:102B400004F58064A0424BD004F58064A04249D0D3
:102B500004F58064A04247D004F58064A04245D0CB
:102B600004F58064A04243D004F58064A04241D0C3
:102B700004F58064A0423FD004F58064A0423DD0BB
:102B800004F58064A04214BF0A24092404FA0CF45A
:102B900044EA0E04BC609468F74315F4801F0CBF30
:102BA0003C4034439460D46815F4001F0CBF3C4093
:102BB0003443D460546815F4003F0CBF3C403443A8
:102BC00054601468ED0354BF3C4034431460013337
:102BD000102B7FF43DAF03B0BDE8F08F0024D5E7A4
:102BE0000124D3E70224D1E70324CFE70424CDE76F
:102BF0000524CBE70624C9E70724C7E70824C5E76F
:102C0000003C014000000240003802400AB18161EE
:102C100070470904FBE7436901EA030221EA030163
:102C200041EA0241816170470749CA6822F4E062C3
:102C30000302120403F4E063120C134343F0BF6376
:102C400043F40033CB60704700ED00E0164B30B525
:102C5000DC68C4F30224C4F10703251D042B28BF3C
:102C60000423062D4FF0FF358CBF033C002405FAEA
:102C700003F321EA0303A54022EA0502A34000284A
:102C800043EA0203ACBF00F16040084A4FEA031375
:102C9000B8BF00F00F00DBB2AABF00F561401354CB
:102CA00080F8003330BD00BF00ED00E014ED00E01F
:102CB000002807DB044A4109012300F01F0083407C
:102CC00042F82130704700BF00E100E008B50B4B2F
:102CD0001A6842F400721A601A6842F480621A603C
:102CE0001A6842F480721A600320FFF79DFF0020EB
:102CF00003F022FF03F0ACFC002008BD003C0240C2
:102D0000034A044B11681B780B441360704700BFE3
:102D1000E401002054000020014B1868704700BFF8
:102D2000E401002038B50446FFF7F6FF631C1CBF22
:102D3000054B1B78054618BFE418FFF7EDFF431B52
:102D4000A342FAD338BD00BF5400002010B504469A
:102D500050B1437903F0FF0213B9027103F098FCFC
:102D600001236371002010BD0120FCE710B504466B
:102D700020B390F8393003F0FF021BB980F83820F7
:102D800003F09EFC022384F83930236861681A68D6
:102D900022F440320A431A605A6BA16822F00702FB
:102DA0000A435A631A6CE1686FF30D020A431A640E
:102DB00000200123E06384F8393010BD0120FCE7D6
:102DC00070477047036870B55E681D68F207044677
:102DD00014D5E90512D51A6822F480721A60C26B04
:102DE00042F00102C26301229A60042380F8393064
:102DF000002380F83830436903B19847B20616D5EE
:102E0000AB0414D523681A6822F400521A602022F9
:102E10009A60E36B43F00203E363042384F83930E0
:102E2000002384F8383063690BB120469847300797
:102E300016D5290514D523681A6822F400621A6091
:102E400008229A60E36B43F00403E363042384F8ED
:102E50003930002384F8383063690BB12046984735
:102E600072070BD56B0509D523681A6822F48062B6
:102E70001A6004229A602046FFF7A2FFB00714D51B
:102E8000A90512D523681A6822F400721A6002227A
:102E90009A60E36BE363012384F83930002384F8FC
:102EA000383023690BB120469847F20613D5EB045E
:102EB00011D523681A6822F480521A6010229A6091
:102EC000E36BE363012384F83930002384F838305E
:102ED0002046FFF776FF70BDF0B590F83820012A44
:102EE00003464FF002002BD0012283F8382083F8EC
:102EF000390003EB0112D2E90740556A174F44EA43
:102F00000040093C012C9CBF05F07F4210434FEA72
:102F100001161A6888BF40EA056091B9516A3940C4
:102F200001435162012C9969916103D8596A21F0DA
:102F30007F4191620122002083F8392083F8380014
:102F4000F0BDD16939400143D1619919012C8969DA
:102F500011619CBF25F07F451562EBE7F0FFFC0097
:102F60002DE9F041D1E90738D1E9012CD1E9037607
:102F7000D1E90554D1F824E0096843EA080381B98E
:102F800043EA0E03134343EA0C033B430168334314
:102F90002B4323436FF30E010B4303600020BDE876
:102FA000F081016843EA0E0321F4F8410B4303600A
:102FB00042EA0C0341683B4333432B4321F4FF4275
:102FC000234322F07F0213434360E7E7CB6803F11A
:102FD000FF3C4B69F0B54C688F680E698D690968D4
:102FE000013B1B05013C013F013E013D24013F0225
:102FF00036042D06013943EA0C335AB90B432343F7
:1030000082683B4333432B4302F070421343836097
:103010000020F0BD826822F4700222F47042134353
:10302000836044EA0703C2680B4333432B4302F037
:1030300070421343C360EBE738B50D460446C8B190
:1030400090F82C3003F0FF021BB980F82D2003F01C
:1030500007FD022384F82C30211D2068FFF780FF34
:10306000626820682946FFF7B1FF012384F82C30FD
:10307000002038BD0120FCE770B5044608B90120E6
:1030800070BD90F83D3003F0FF021BB980F83C2082
:1030900003F038FB242384F83D3023681A6822F0BB
:1030A00001021A601A6842F400421A601A6822F497
:1030B00000421A60FFF75CFB3F4B65689D4294BF7E
:1030C0003E4B3F4B98428CBF00230123002BD6D1AF
:1030D0002268394E51683B4BB0FBF3F321F03F01BE
:1030E0001943B542516088BF4FF49676116A88BF84
:1030F000734321F03F0184BF4FF47A76B3FBF6F3BC
:1031000001330B431362D169431E2B4821F44F4115
:10311000854221F0FF0132D86D0040F6FC70B3FB10
:10312000F5F30133034242D0C3F30B031943D161DA
:10313000D4E907301168034321F0C0010B43136049
:103140009168D4E9030321F40341034321F0FF0113
:103150000B439360D4E90530D168034321F0FF01AC
:103160000B43D360136843F0010313600020202356
:10317000206484F83D30206384F83E0080E7A06836
:1031800050B905EB4505B3FBF5F30133C3F30B036E
:103190007BB143F40043C9E719206843B3FBF0F364
:1031A0000133C3F30B0323B143F44043BEE70423CD
:1031B000BCE70123BAE700BFA08601007F841E00A0
:1031C000FF083D0040420F0010B590F83D30202B25
:1031D000DCB216D1242380F83D3003681A6822F04F
:1031E00001021A605A6A22F010025A625A6A1143A6
:1031F00059621A6842F001021A6080F83D400020CE
:1032000010BD0220FCE730B590F83D30202BDCB239
:1032100016D10268242380F83D30136823F001039F
:103220001360556A4FF6F0732B400B439BB2536209
:10323000136843F00103136080F83D40002030BD67
:103240000220FCE70068D20184328318F0B5C76819
:103250005D684C680E6805F470455D60C56806F1F0
:10326000010CC5F30B45C7F30B472744654445EAFA
:1032700007455D60C768CD68C7F30A072F449D689E
:1032800005F470459D60D0F80CC08D68CCF30A0C35
:103290000135654445EA07459D601D69D1F810C0B8
:1032A0008F6925F007051D61C3F810C091F83050F3
:1032B00045EA076591F8317045EA072591F83270C3
:1032C00045EA07459D615D6925F0FF055D614D6932
:1032D0005D61DD6925F4E06525F00705DD61D1E973
:1032E00007573D43DD61BCF1070F4D6A9D629CBFEE
:1032F0000D4D15F80C70DD6A05F0E025DD6288BF24
:1033000001278D6AC96AA41B7C437D43033444EAC8
:103310000544DC621C6B6FF30A041C631963835859
:1033200043F001038350F0BDE46C000838B5044657
:1033300000284ED090F8A13003F0FF021BB980F8AE
:10334000A02003F031FA022384F8A13023689A699F
:1033500022F070429A61D4E901200243E068996941
:103360000243206902430A439A61D4E9051242EA02
:1033700001429A60D4E9071242EA0142DA60D4E9D4
:10338000091242EA01421A61D4E90B1242EA0142EF
:103390005A61DA6A94F8350094F8361002F07F42E8
:1033A000DA62DD6A94F834202A4342EA002242EAD3
:1033B0000142DA625A6B42F006025A639A6942F09D
:1033C00001029A6100200123C4F8A40084F8A1300E
:1033D00038BD0120FCE7704770477047036870B53F
:1033E0009E6B5D6B7207044614D5690712D55A6B44
:1033F00022F004025A630422DA63D0F8A43043F0C6
:103400000103C0F8A430002380F8A12080F8A03088
:10341000FFF7E1FFB20716D5AB0714D523685A6B47
:1034200022F002025A630222DA63D4F8A430134372
:10343000C4F8A430042384F8A130002384F8A03019
:103440002046FFF7C8FFF00710D5E9070ED523681F
:103450005A6B22F001025A630122DA63002384F8D6
:10346000A12084F8A0302046FFF7B6FF320711D51F
:103470002B070FD523685A6B22F008025A630822E3
:10348000DA63012384F8A130002384F8A0302046B9
:10349000FFF7A3FF70BD2DE9F04190F8A030012B9C
:1034A00006460F4694464FF002001FD04FF0010829
:1034B00086F8A08086F8A10034240D4604FB02643F
:1034C0000FCD38340FC40FCD0FC40FCD0FC42B68F0
:1034D0002360304662463946FFF7B4FE3368002069
:1034E000C3F8248086F8A18086F8A000BDE8F081AA
:1034F00010B50446002855D0436A002B4ED14268CF
:10350000B2F5827F00D0C3610023A36294F85130EA
:1035100003F0FF0223B984F85020204603F01EFA7E
:103520002168A068A269022384F851300B6823F057
:1035300040030B60636800F4044003F482730343A8
:10354000E06800F400600343206900F002000343D8
:10355000606900F00100034302F400700343E06976
:1035600000F038000343206A00F080000343A06AA3
:1035700000F4005003430B60636A120C03F0100365
:1035800002F004021A434A60CB6923F40063CB6162
:1035900000200123606584F8513010BD0023C0E98C
:1035A0000433B1E70120F8E70268C16838B5136950
:1035B00023F440530B431361054683680069D168C7
:1035C000034368690343E86921F4164121F00C01C3
:1035D00003430B43D3605369A96923F440730B433E
:1035E00053611F4B9A4203D003F580639A4224D162
:1035F000FFF7CEF8EA691921B2F5004FD5E900438B
:10360000A0FB01011CD1DA184FF0000545EB0503C2
:10361000FCF7A4FF6422B0FBF2F102FB1103DB0014
:103620003233B3FBF2F303F007025B0002EB01124B
:1036300003F4F8731344A36038BDFFF799F8D9E792
:103640009A009B0FFCF78AFF6422B0FBF2F102FBA9
:1036500011031B013233B3FBF2F303EB0113EAE76F
:103660000010014010B5044648B390F8413003F013
:10367000FF021BB980F8402003F0BCF92268242324
:1036800084F84130D36823F40053D3602046FFF719
:103690008BFF23681A6922F490421A615A6922F05A
:1036A0002A025A61DA6842F40052DA6000202023CC
:1036B000606484F8413084F84230606310BD0120BA
:1036C000FCE700F108034FF0FF32C0E9022343603A
:1036D0000361002303607047002303617047436860
:1036E0004B609A688A605160996003680861013391
:1036F0000360704730B50C68631C0AD103695A68CF
:103700004A6091608B60596003680861013303600F
:1037100030BD00F10802134652681568A542FAD977
:10372000EDE7D0E9011203698A605160596881426E
:1037300008BF5A60002202611A68013A1A601868CC
:10374000704710B5044601F00DFAA46B01F02AFA97
:10375000B4FA84F0400910BD70B51646026C856B52
:10376000044642B906689EB9806800F091FFA660E1
:103770000135A56370BD6EB94068FDF76DF86368EB
:10378000226C1344A2686360934224BF2368636081
:103790000020EDE7C068FDF75FF8226CE368514256
:1037A0009B1A2268E36093423EBFA3685B18E36004
:1037B000022EEDD10DB1013DEAE72846D8E70346D8
:1037C00010B41A6C08466AB1DC68996814448C42DB
:1037D00028BF1968DC6028BFD960D9685DF8044B40
:1037E000FDF73AB85DF8044B704770B5044601F038
:1037F000B9F994F8455004F124066DB2002D01DDAD
:10380000636AB3B9FF2384F8453001F0CBF901F0C6
:10381000A9F994F8445004F110066DB2002D01DDB1
:1038200023697BB9FF2384F84430BDE8704001F080
:10383000B9B9304600F08CFE08B100F013FF013D2D
:103840006DB2DBE7304600F083FE08B100F00AFFFE
:10385000013D6DB2E2E738B50D46044640B94FF080
:10386000500383F31188BFF36F8FBFF34F8FFEE7D1
:1038700001F078F9D4E90F31226862604B43D01827
:103880005B1A1A44A060FF230020A063E26084F862
:10389000443084F84530A5B9236973B104F11000B0
:1038A00000F056FE48B14FF0E0234FF08052C3F8CD
:1038B000042DBFF34F8FBFF36F8F01F073F9012019
:1038C00038BD04F11000FFF7FCFE04F12400FFF7FF
:1038D000F8FEF2E737B50D461C4640B94FF05003ED
:1038E00083F31188BFF36F8FBFF34F8FFEE743B9A8
:1038F0004FF0500383F31188BFF36F8FBFF34F8FE7
:10390000FEE74AB191B94FF0500383F31188BFF33A
:103910006F8FBFF34F8FFEE741B14FF0500383F33A
:103920001188BFF36F8FBFF34F8FFEE748230193DA
:10393000019B482B08D04FF0500383F31188BFF34D
:103940006F8FBFF34F8FFEE70121002D08BF224686
:10395000C4E90F0584F8461022602046019BFFF75A
:103960007AFF204603B030BD70B50D46064640B91B
:103970004FF0500383F31188BFF36F8FBFF34F8F66
:10398000FEE74843483000F0ABFF044660B1002337
:1039900080F8463055B100F14803C4E90F65236053
:1039A00001212046FFF757FF204670BD0346F4E78C
:1039B0002DE9FF410F4601921E46044640B94FF0E3
:1039C000500383F31188BFF36F8FBFF34F8FFEE770
:1039D00051B9036C43B14FF0500383F31188BFF327
:1039E0006F8FBFF34F8FFEE7022E0BD1E36B012BDE
:1039F00008D04FF0500383F31188BFF36F8FBFF3EC
:103A00004F8FFEE700F034FE054620B300254FF04F
:103A1000000801F0A7F8A26BE36B9A4227D2324666
:103A200039462046FFF798FE636A1BB104F1240073
:103A300000F08EFD48B14FF0E0234FF08052C3F804
:103A4000042DBFF34F8FBFF36F8F01F0ABF8012050
:103A500004B0BDE8F081019B002BD8D04FF050039B
:103A600083F31188BFF36F8FBFF34F8FFEE7022EF2
:103A7000D5D0019B1BB901F095F80020E8E715B9F6
:103A800002A800F0A7FD01F08DF800F0B9FB01F0ED
:103A900069F894F84430FF2B08BF84F8448094F808
:103AA0004530FF2B08BF84F8458001F07BF801A961
:103AB00002A800F09BFD38BB01F054F8A26BE36B49
:103AC0009A420ED101F06EF8019904F1100000F055
:103AD00025FD2046FFF789FE00F034FC48B10125A2
:103AE00097E701F05FF82046FFF77FFE00F02AFC21
:103AF000F5E74FF0E0234FF08052C3F8042DBFF3F9
:103B00004F8FBFF36F8FEAE72046FFF76EFE00F09E
:103B100019FCB2E72DE9F843894617461E460446CC
:103B200040B94FF0500383F31188BFF36F8FBFF399
:103B30004F8FFEE751B9036C43B14FF0500383F34D
:103B40001188BFF36F8FBFF34F8FFEE7022E0BD1AB
:103B5000E36B012B08D04FF0500383F31188BFF3C0
:103B60006F8FBFF34F8FFEE701F00EF9EFF311886F
:103B70004FF0500383F31188BFF36F8FBFF34F8F64
:103B8000A26BE36B9A4201D3022E1ED194F84550EA
:103B9000A36B6DB2324649462046FFF7DDFD6B1C34
:103BA0000ED1636A3BB104F1240000F0D1FC10B1E6
:103BB0000FB101233B60012088F31188BDE8F88331
:103BC00001356DB284F84550F5E70020F4E72DE9A2
:103BD000FF410E460192044640B94FF0500383F373
:103BE0001188BFF36F8FBFF34F8FFEE751B9036C9E
:103BF00043B14FF0500383F31188BFF36F8FBFF3CE
:103C00004F8FFEE700F034FD054618B300254FF056
:103C1000000800F0A7FFA76B47B331462046013FDD
:103C2000FFF7CDFDA763236973B104F1100000F025
:103C30008FFC48B14FF0E0234FF08052C3F8042DC1
:103C4000BFF34F8FBFF36F8F00F0ACFF012004B0C4
:103C5000BDE8F081019B002BD9D04FF0500383F3D6
:103C60001188BFF36F8FBFF34F8FFEE7019B1BB926
:103C700000F098FF0020EAE715B902A800F0AAFCBE
:103C800000F090FF00F0BCFA00F06CFF94F84430B4
:103C9000FF2B08BF84F8448094F84530FF2B08BF01
:103CA00084F8458000F07EFF01A902A800F09EFC88
:103CB00000BB2046FFF745FDB0B1019904F1240097
:103CC00000F02CFC2046FFF790FD00F03BFB48B9CC
:103CD0004FF0E0234FF08052C3F8042DBFF34F8F15
:103CE000BFF36F8F012594E72046FFF77EFD00F0BC
:103CF00029FBF7E72046FFF778FD00F023FB20467D
:103D0000FFF71FFD0028EDD0B4E72DE9F843894601
:103D10009046044640B94FF0500383F31188BFF337
:103D20006F8FBFF34F8FFEE751B9036C43B14FF074
:103D3000500383F31188BFF36F8FBFF34F8FFEE7FC
:103D400001F022F8EFF311874FF0500383F311884D
:103D5000BFF36F8FBFF34F8FA56B0DB394F8446023
:103D6000494676B22046FFF72AFD013D731CA56344
:103D700011D1236953B104F1100000F0E9FB28B11F
:103D8000B8F1000F02D00123C8F80030012087F3FA
:103D90001188BDE8F883013676B284F84460F5E70F
:103DA0002846F4E710B5044640B94FF0500383F3BA
:103DB0001188BFF36F8FBFF34F8FFEE700F0D2FE85
:103DC000A46B00F0EFFE204610BD40B94FF0500349
:103DD00083F31188BFF36F8FBFF34F8FFEE7806BC4
:103DE000704700002DE9F041044600F0BBFE2F4B68
:103DF0002F4E1A682F4F01321A603568002D4AD1B4
:103E000034601B68012B1FD1B84640460135FFF7CF
:103E100058FC072D08F11408F7D1DFF8C080264DB3
:103E20004046FFF74EFC2846FFF74BFC2348FFF7C0
:103E300048FC2348FFF745FC2248FFF742FC224B91
:103E4000C3F80080214B1D60214A2249136808688D
:103E500001331360E26A01239340034314200B6093
:103E600000FB0270211DFFF73AFC00F09BFE1A4B8D
:103E70001B6873B13368DA6AE36A9A4209D24FF079
:103E8000E0234FF08052C3F8042DBFF34F8FBFF3F0
:103E90006F8FBDE8F081104B1A68E36A002AD3D116
:103EA0003268D26A9A4298BF3460CDE70C02002093
:103EB0000C03002080020020580200203C02002059
:103EC000280200201002002054020020500200208E
:103ED000F001002004020020000200206C020020FB
:103EE000F8B51A4B1A4D1C680646286804300F4670
:103EF000FFF717FC40B92A681649D06A0B680122FF
:103F0000824023EA02030B60731C07D137B1296892
:103F10001148BDE8F8400431FFF7E1BB2B68A41954
:103F20005C6007D30D4B18682968BDE8F840043180
:103F3000FFF7E0BB0A4B186829680431FFF7DAFB8A
:103F4000084B1A68A24288BF1C60F8BD0802002016
:103F50000C03002004020020100200205002002068
:103F600054020020EC010020064A13681968064B31
:103F700019B94FF0FF321A6070471268D268D268E0
:103F80005268F8E754020020EC01002010B590F8C8
:103F9000553004463BB9006B00F03CFD2046BDE8BF
:103FA000104000F037BD012BF9D0022B08D04FF0A4
:103FB000500383F31188BFF36F8FBFF34F8FFEE77A
:103FC00010BD000080B5144C144F154D236883B903
:103FD000144B1B68012B09D94FF0E0234FF080529E
:103FE000C3F8042DBFF34F8FBFF36F8F02F002FBB6
:103FF000EBE700F0B7FDFB68DE68301DFFF791FBD3
:104000002B68013B2B602368013B236000F0CAFD55
:104010003046FFF7BBFFD9E724020020280200202A
:104020000C020020800200202DE9F047DDE9099410
:104030009600324607460D46206BA5219846FCF7B0
:1040400023F9236B043E1E4426F00706B5B36B1E0E
:1040500004F133020F3513F8011F02F8011F09B1F3
:10406000AB42F8D1002384F84330089D062D28BFC9
:1040700006254FF0000AE5626564201DC4F848A0DB
:10408000FFF72AFBC5F1070504F11800FFF724FB31
:10409000C4F850A02461A5616462C4F84CA084F8FF
:1040A00054A042463946304600F030FD2060B9F158
:1040B000000F01D0C9F80040BDE8F08784F8345003
:1040C000D3E770B586B0DDE90B5445B94FF0500326
:1040D00083F31188BFF36F8FBFF34F8FFEE744B9AF
:1040E0004FF0500383F31188BFF36F8FBFF34F8FEF
:1040F000FEE758260596059E582E08D04FF050032F
:1041000083F31188BFF36F8FBFF34F8FFEE72563F3
:10411000022584F8555004AD01950A9D029400953E
:10412000059EFFF781FF2046FFF75CFE049806B06E
:1041300070BD2DE9F043074685B0900088461646CD
:10414000994600F0CDFB054620B94FF0FF3005B091
:10415000BDE8F083582000F0C3FB044698B100236B
:1041600080F855300D9B056301930C9B02900093E2
:1041700032464B4641463846FFF756FF2046FFF78A
:1041800031FE0120E3E7284600F044FCDDE70000B3
:1041900010B588B0002407AA06A905A8CDE90544F2
:1041A00002F02CFA059B0293069B079A0F491048D0
:1041B000CDE900432346FFF784FFA8B14FF0500339
:1041C00083F31188BFF36F8FBFF34F8F094B4FF00D
:1041D000FF321A60084B01221A60084B1C6008B0BD
:1041E000BDE8104000F04EBD08B010BDEC6C0008FA
:1041F000C53F0008EC01002000020020080200205A
:10420000024A136801331360704700BFE8010020C1
:10421000414B1B682DE9F74F002B75D13F4B1C68B4
:1042200001341C60BCB93E4B1A68126842B14FF0B1
:10423000500383F31188BFF36F8FBFF34F8FFEE7F7
:10424000384A1968106818601160374A13680133DA
:104250001360FFF789FE354D354E2B68354F9C4274
:104260004FF0000B12D23A68D26A14214A43B25876
:10427000022A314A126828BF4FF0010B002A18BFEA
:104280004FF0010B584603B0BDE8F08FDFF890A067
:10429000DFF8AC90DAF8002012681AB94FF0FF325C
:1042A0002A60E0E7DAF80020D268D2F80C80D8F86B
:1042B00004108C4201D22960D5E708F104031846A6
:1042C0000193FFF72EFAD8F8281019B108F1180059
:1042D000FFF727FAD8F82C00D9F80030012202FAAB
:1042E00000F119434FF0140CC9F800100CFB0060EA
:1042F0000199FFF7F4F93868D8F82C10C26A914296
:1043000028BF4FF0010BC5E70C4A13680133136057
:104310004FF0000BB6E700BFE801002008020020C4
:104320005402002050020020F4010020EC01002083
:10433000800200200C030020F8010020FC01002076
:10434000040200202DE9F843314C236843B94FF0B3
:10435000500383F31188BFF36F8FBFF34F8FFEE7D6
:1043600000F000FC2368013B236024682CB100248A
:1043700000F018FC2046BDE8F883264B1B68002B94
:10438000F5D0254D254EDFF8A4801FE0EB68DC68F2
:1043900004F1040904F11800FFF7C3F94846FFF7D8
:1043A000C0F9E26A3168012707FA02F314200B43CF
:1043B00000FB028049463360FFF791F9184BE26A2F
:1043C0001B68DB6A9A4201D3164B1F602B68002BD7
:1043D000DCD10CB1FFF7C8FD134D2C6844B1114E70
:1043E0000127FFF715FF00B13760013CF9D12C60C0
:1043F0000C4B1B68002BBAD04FF0E0234FF08052DB
:10440000C3F8042DBFF34F8FBFF36F8F0124AFE7C5
:10441000E80100200C0200203C02002004020020E1
:104420000C030020F8010020FC0100208002002085
:1044300008B550B94FF0E0234FF08052C3F8042D77
:10444000BFF34F8FBFF36F8F08BD0A4B196841B19F
:104450004FF0500383F31188BFF36F8FBFF34F8F7B
:10446000FEE7FFF7CDFEFFF73BFDFFF76BFF0028F0
:10447000E0D0E9E7E801002038B5234B1A68234B68
:1044800012B101221A6038BD214C1A6023681B6BDF
:104490001A68B2F1A53F0BD15A68B2F1A53F07D116
:1044A0009A68B2F1A53F03D1DB68B3F1A53F04D010
:1044B00020682168343102F09EF8164B1A68B2FA6F
:1044C00082F2D2B2C2F11F02142313495343C81817
:1044D000CD5845B94FF0500383F31188BFF36F8F68
:1044E000BFF34F8FFEE7456808336D6845600B44A6
:1044F0009D4204BF6B684360142303FB02114B68A9
:10450000DB682360BFE700BFE8010020F80100205E
:104510000C030020040200208002002010B50C468D
:1045200040B94FF0500383F31188BFF36F8FBFF38F
:104530004F8FFEE7054B19681831FFF7DBF820466F
:104540000121BDE81040FFF7CBBC00BF0C030020E9
:1045500038B5C368DC6844B94FF0500383F3118861
:10456000BFF36F8FBFF34F8FFEE704F118052846A6
:10457000FFF7D7F8114B1B68E3B9251D2846FFF755
:10458000D0F80F49E26A08680123934003430B60A7
:104590000C4B1420294600FB0230FFF7A0F80A4B11
:1045A000E26A1B68DB6A9A4283BF084B01201860ED
:1045B000002038BD06482946EFE700BFE80100208B
:1045C00004020020800200200C030020F8010020DB
:1045D0003C020020034B1B680360034B1B684360D5
:1045E000704700BFF40100200802002070B50C469F
:1045F000054640B94FF0500383F31188BFF36F8F26
:10460000BFF34F8FFEE741B94FF0500383F311889A
:10461000BFF36F8FBFF34F8FFEE700F0A3FA0F4B8E
:10462000196823685A1C10D00D482E6800686A6803
:10463000864201D08A420FD9881A83420AD95B1A6E
:10464000134423602846FFF7C5FF002400F0AAFAB0
:10465000204670BD002323600124F7E708020020F4
:10466000F4010020014B01221A607047F80100207C
:10467000054B1B6833B1054B1868B0FA80F0400950
:10468000400070470120704700020020E801002030
:10469000F8B5044608B90020F8BD224B1B688342D8
:1046A00008D04FF0500383F31188BFF36F8FBFF32F
:1046B0004F8FFEE79B6C43B94FF0500383F3118893
:1046C000BFF36F8FBFF34F8FFEE7C16A426C013BB0
:1046D00091428364DFD0002BDDD1061D3046FFF709
:1046E00020F8114F114A50B9E16A14234B43FB588B
:1046F0002BB9136801258D4023EA05031360636C11
:10470000E362C3F10701A1611168012404FA03F512
:1047100014200D4300FB037031461560FEF7DFFFE8
:104720002046B9E70C03002080020020040200208C
:1047300008B5FFF72DFD002008BD70B50546466998
:104740002A69B5F908400B4686B0D0E9001076B169
:10475000AD6965B1842C14BF03340024CDE9016533
:104760000094FFF7AEFC0590059806B070BD842C50
:1047700014BF0334002405ADCDE9004592B2FFF724
:10478000D8FC0128F0D00020EFE708B5012838BF99
:104790000120FFF74DFE002008BD13B5034607C8F2
:1047A0000AB1DB682BB9002202B0BDE81040FFF768
:1047B000DBB800240094FFF78DF802B010BD1FB5E0
:1047C000019100210391EFF30583C3B10B4603AAC6
:1047D00001A9FFF79FF9012803D0FF2005B05DF87C
:1047E00004FB039B4BB14FF0E0234FF08052C3F822
:1047F000042DBFF34F8FBFF36F8F0020EEE7012A28
:1048000038BF012201A9FFF7D3F80128F5D0E4E76A
:1048100030B585B00023054614460846039102933F
:1048200011B98023019318E00093EFF30583E3B1FE
:104830006A4602A9FFF769FA431E58425841009B95
:10484000000101904BB14FF0E0234FF08052C3F8CC
:10485000042DBFF34F8FBFF36F8F04AB13E9070035
:1048600085E80700284605B030BD02A9FFF7AFF97B
:10487000012801D11023D5E7003C18BF0124A40171
:104880000194EAE7EFF305830BB1FFF79EBAFFF758
:1048900089BA000010B5104B1A461B688342FBD33F
:1048A00054681119884201BF4168104609195160C6
:1048B000446801198B420CD1084909688B4203D026
:1048C00059682144416019680160904218BF106026
:1048D00010BD1946F8E700BF28030020240300207C
:1048E0002DE9F0410446FFF78BFC4349434D0B682B
:1048F0000BBB434A56071FBFD01D20F0070002F52F
:104900000042131A0CBF4FF40043024613443D4EBD
:10491000083B23F00703002070603260C3E9000009
:10492000981AC2E900300B60374B1860374B18609B
:104930004FF000432B602F68274207D0FFF702FD9E
:1049400001F05AFE00263046BDE8F081002CF5D07B
:1049500004F1080360071CBF23F007030833002B92
:10496000ECD0DFF8A880D8F800509D42E6D3254A65
:1049700014686068984201D22668B6B90968A142F5
:10498000DCD0216816681160C21A102A06F10806E8
:1049900012D9E01841070BD04FF0500383F3118870
:1049A000BFF36F8FBFF34F8FFEE722463446E0E739
:1049B00042606360FFF76EFF62681349AD1A1743E8
:1049C000134A08686760002323601368C8F8005022
:1049D000854203F1010338BF0D601360FFF7B2FC9D
:1049E0007307B0D04FF0500383F31188BFF36F8F7C
:1049F000BFF34F8FFEE700BF240300201003002009
:104A000030030020280300201C0300202003002086
:104A10001803002010B5044690B31A4A50F8043C1D
:104A20001268134208D14FF0500383F31188BFF38B
:104A30006F8FBFF34F8FFEE750F8081C41B14FF066
:104A4000500383F31188BFF36F8FBFF34F8FFEE7DF
:104A500023EA020340F8043CFFF7D2FB0A4A54F869
:104A6000043C1168A4F108000B441360FFF712FF27
:104A7000064A1368BDE8104001331360FFF762BCBB
:104A800010BD00BF100300202003002014030020ED
:104A900008480068006880F308884FF0000080F341
:104AA000148862B661B6BFF34F8FBFF36F8F00DF1C
:104AB00000BF000008ED00E0DFF80C00016841F4E1
:104AC000700101607047000088ED00E082B00023B3
:104AD00001930D4B1B68013308D04FF0500383F353
:104AE0001188BFF36F8FBFF34F8FFEE74FF0500376
:104AF00083F31188BFF36F8FBFF34F8F019B002BA0
:104B0000FCD002B0704700BF5C0000204FF0807303
:104B100040F8043C074B40F80C3C21F001016FF0D9
:104B2000020340F8081C40F8202C40F8243C44388C
:104B3000704700BFCD4A00080000000000000000E0
:104B4000074B19680868B0E8F04F80F30988BFF395
:104B50006F8F4FF0000080F311887047AFF3008033
:104B60000C0300204FF0500383F31188BFF36F8FC5
:104B7000BFF34F8F0A4A13680133012B13600ED124
:104B80004FF0E023D3F8043DDBB243B14FF05003C4
:104B900083F31188BFF36F8FBFF34F8FFEE770472A
:104BA0005C000020084A136843B94FF0500383F3B8
:104BB0001188BFF36F8FBFF34F8FFEE7013B136088
:104BC0000BB983F3118870475C00002000000000DF
:104BD000EFF30980BFF36F8F154B1A681EF0100FAB
:104BE00008BF20ED108A20E9F04F10602DE9090080
:104BF0004FF0500080F31188BFF34F8FBFF36F8FDA
:104C0000FFF73AFC4FF0000080F3118809BC1968E7
:104C10000868B0E8F04F1EF0100F08BFB0EC108A23
:104C200080F30988BFF36F8F704700BFAFF3008038
:104C30000C03002008B54FF0500383F31188BFF335
:104C40006F8FBFF34F8FFFF7E3FA28B14FF0E023E8
:104C50004FF08052C3F8042D002383F3118808BD60
:104C60004FF0E022002313619361054B4FF47A71FA
:104C70001B68B3FBF1F3013B5361072313617047DA
:104C8000500000204FF0E02337B5D3F8001D384A1C
:104C9000914208D14FF0500383F31188BFF36F8F17
:104CA000BFF34F8FFEE7D3F8002D324B9A4208D165
:104CB0004FF0500383F31188BFF36F8FBFF34F8F13
:104CC000FEE72D4B1A78D2B20192FF221A701B78A0
:104CD0002A4ADBB28DF803309DF8033003F050030D
:104CE0001370274A072313609DF803101368090601
:104CF0000AD4032B11D04FF0500383F31188BFF374
:104D00006F8FBFF34F8FFEE7013B13609DF80330B9
:104D10005B00DBB28DF80330E6E74FF440731360BD
:104D2000019B154A4FF0E024DBB21370D4F8203D0C
:104D300043F47003C4F8203DD4F8203D43F07043A1
:104D4000C4F8203DFFF78CFF0E4B00251D60FFF7D8
:104D5000B3FED4F8343F43F04043C4F8343FFFF788
:104D600097FEFFF789FBFFF7B1FE284603B030BD81
:104D700071C20F4170C20F4100E400E03483002093
:104D8000308300205C000020EFF305830F2B0ED949
:104D9000114A9B5C114A12789A4208D94FF050038D
:104DA00083F31188BFF36F8FBFF34F8FFEE74FF090
:104DB000E0230B4AD3F80C3D126803F4E0639342FE
:104DC00008D94FF0500383F31188BFF36F8FBFF3FF
:104DD0004F8FFEE7704700BFF0E300E03483002010
:104DE0003083002070B5402604463246002100F58D
:104DF0006170FBF749FA002501234FF48072A3701C
:104E000023832570C4F81C2329466570C4F8C45355
:104E1000A67104F11C00FBF737FA29464FF4007223
:104E200004F58E70FBF730FA2946122204F2263080
:104E3000FBF72AFA294604F54E703E22BDE8704081
:104E4000FBF722BA38B5C0F8E0130446D0F8D8030F
:104E50001546FFF717FD102808D0D4F8E013D4F852
:104E6000D8032A46BDE83840FFF7A9BC38BD00008A
:104E700070B50E468CB0044688B30025C0E9DF55F6
:104E800080F8CC23FFF7AEFF84F8235384F8205337
:104E900084F8215384F822530EB1C4F8D463114D21
:104EA00095E80F0001AE86E80F0000213046FFF7BD
:104EB00074FC1035C4F8D8030FCD05AE0FC695E8C5
:104EC000070086E80700214605A8FFF736FCC4F86E
:104ED000DC03204601F056F800200CB070BD022023
:104EE000FBE700BF846C0008034641B1D0F88003A3
:104EF00028B90122C3F88023C3F878137047022031
:104F0000704790F83C338B4286BF80F82413002012
:104F10000220704770B50446002594F847638E421E
:104F2000E8B201D0FF290BD194F84863964201D032
:104F3000FF2A05D194F849639E4204D0FF2B02D08A
:104F40001A340DB1FF2070BD0125E6E710B5044607
:104F500001F075F80121204601F04FF8002010BD46
:104F600030B587B002238DF8173090F82133012B2C
:104F700004BF03230370037804460B2B21D8DFE81A
:104F800013F00C0023004500A60120007A008C01DC
:104F90004A0152015B016F019E0190F8203383B1F9
:104FA00001250570C82001F042F8204601F059F8AB
:104FB000002284F81C23C4F8C82301212046FFF7EF
:104FC00041FF002007B030BD90F82333012B06D1FC
:104FD000002380F81F33022323700022EDE7D0F86E
:104FE000C833B3F57A7F0AD990F81F330133DBB2A7
:104FF000032B80F81F338CBF0D230023ECE70A330B
:10500000C0F8C8330A2001F012F8E6E7D0F8D4332C
:105010000BB104219847642001F009F8204600F004
:10502000D9FF0523237084F81D030021204600F0DA
:105030003EFD80216071204600F039FD0025A379F6
:1050400020710293019594F81D33009394F81C335A
:1050500001468022204600F016FDA379CDE90153D8
:1050600094F81D33009394F81C3361792A46204646
:1050700000F009FDB1E74378072B46D8DFE803F0DD
:10508000043F57717793A7B6082100F0C1FA05468F
:10509000F0B994F82D33A37101226270CDE90103B8
:1050A00094F81D33009394F81C3321798022204614
:1050B00000F0E9FCA379CDE9015394F81D33009386
:1050C00094F81C3361792A46204600F0DCFC1CE091
:1050D00003281AD194F81E330133DBB2032B84F872
:1050E0001E3301D90D2308E06179204600F0F6FC5B
:1050F0002179204600F0F2FC0023237005E0122104
:1051000000F086FAD0BB0223637001208DF81700EF
:105110009DF8173003F0FF02002B7FF452AF94F894
:10512000373384F82423012B70D108236FE0012149
:1051300000F017FC054670B9022000F078FF03224A
:105140006270A279012384F81C33CDE9015294F8EE
:105150001D230092A9E70328D7D10D232370002334
:10516000D2E7092100F0C0FA40B90423CCE7B0F837
:105170003A1300F0B9FA08B90523C5E70328C4D1EA
:1051800094F81E330133DBB2032B84F81E33A9D805
:105190006179204600F0A2FC2179204600F09EFCB7
:1051A00000236370A9E790F8341329B1FF2300F5B9
:1051B0008E7200F0A9FB38B9062363700022052126
:1051C0002046FFF73FFEA0E703289ED1F4E790F8C2
:1051D000351349B1FF2300F58E7200F095FB08B935
:1051E000072391E7032890D10723E6E790F83613C9
:1051F00009B900208AE7FF2300F58E7200F084FBD6
:105200000028F6D0033818BF01207FE7072323705A
:1052100000220521D2E6D0F8D433002B3FF4D1AEE2
:105220000121984781E790F83D1300F0A7FB002883
:105230007FF4D3AE0923CFE690F83F339B0607D522
:10524000012100F0A8FB8DF817009DF817300BB96D
:105250000A23C1E69DF81730032B7FF4BEAEF7E7B3
:10526000D0F88033002BD3D00023C0F87C33D0F8A3
:10527000783390F847231979914218BF0023C0F87A
:105280007C33D3B19B689847B8B9062323700321B8
:10529000D4F8D43320469847BAE7D0F87C3363B1CA
:1052A0001B6998478DF817009DF817300BB90B2331
:1052B000ADE79DF81730022BAAD10D23A7E7D0F850
:1052C0007C33002B3FF47DAE5B69984779E600257F
:1052D00080F82153FFF786FDD4F87C3323B1DB68D7
:1052E00020469847C4F87C53D4F8D43313B1052131
:1052F0002046984794F82233012B06D1002384F8E6
:1053000022332046FFF722FE67E6204600F097FE94
:1053100063E61FB50446D4F8D8134FF0FF3201A856
:10532000FFF776FA019B102BF5D12046FFF718FE08
:10533000F1E7C0F8C4137047D0F8C4230132C0F8B5
:10534000C42302780B2A04D1D0F87C330BB19B69BB
:1053500018477047012180F823130022FFF772BD20
:10536000002380F82333012380F82133704710B5E0
:105370000121002480F82013224680F8214380F880
:105380002243FFF75FFD204610BD70B5044600259F
:10539000012680F8216380F8205380F8235300F021
:1053A00057FE2179204600F099FB6179204600F0F4
:1053B00095FB20462A463146FFF744FD284670BD3E
:1053C00038B5C0F8E0130446D0F8D8031546FFF707
:1053D00059FA102808D0D4F8E013D4F8D8032A4694
:1053E000BDE83840FFF7EBB938BD08B50022012110
:1053F000FFF728FD002008BD73B58578012D044610
:1054000005D0022D0ED00125284602B070BD022322
:10541000837000238160828105761A460321FFF79D
:10542000CFFFF0E7037E013B01220A2B23D8DFE800
:1054300003F0060E2F39545F858FA4AFB800427970
:1054400000F1100100F0C1FA0223237613E0417944
:1054500000F0CFFD012815D1E28A94F9103062B135
:10546000002BB4BF03230523237600231A46032110
:105470002046FFF7A5FF012528E0002BB4BF092334
:105480000723F1E7042801D00228F4D10B23EBE72E
:10549000D0F8C433C38182890379816800F0BCFAF3
:1054A0000423D2E7017900F0A4FD012801D10923EA
:1054B000DAE7052873D100231A4603212046FFF7B7
:1054C0007FFF03250123A3700023237600231A46C0
:1054D00003212046FFF774FF96E700924379828903
:1054E000816800F082FAD4F8C433E3810623ACE784
:1054F000417900F07EFD01380428BCD801A353F89F
:1055000020F000BF19550008235500087754000803
:10551000275500081D5500080723A5E70C2323760F
:10552000C9E70523A0E70B23237600231A460321AE
:105530002046FFF745FF0123A370C7E70022037948
:10554000114600F069FAD4F8C433E38108237CE7FC
:10555000017900F04EFD012809D10D2323760023A7
:105560001A4603212046FFF72BFF0025AAE704284F
:105570008CD005287FF47FAF9DE70092002243790D
:10558000114600F032FAD4F8C433E3810A235CE711
:10559000417900F02EFD0128DFD0022887D00428B1
:1055A00073E7437E0133DBB2022B437603D801233A
:1055B000037683705FE7D0F8D4330621002698473E
:1055C00061796676204600F089FA2179204600F05C
:1055D00085FA2670AFE700BF30B40D4619468378D0
:1055E000012B1446BDF808200FD1448204F47F44F7
:1055F0000623B4F5407F65F07F05437440F209430C
:1056000018BF002305748382C28230BCFFF7F4BE4A
:10561000B1F5007F37B504460D4660D8009100F51E
:105620008E734FF480720021FFF7D6FF00284ED111
:1056300094F81C3184F8263394F81D3184F827330C
:10564000B4F81E31A4F8283394F8203194F81D23BF
:1056500084F82A3394F8213184F82B3394F82231DA
:1056600084F82C33012A94F8233184F82D3330D870
:10567000202B0CD8072B06D91A4A083BDBB222FA9A
:1056800003F3DB0705D4082384F82D3301E0402B16
:10569000F9D1082D1BD9B4F82431A4F82E33B4F86D
:1056A0002631A4F83033B4F82831A4F8323394F812
:1056B0002A3184F8343394F82B3184F8353394F854
:1056C0002C3184F8363394F82D3184F8373303B015
:1056D00030BD022A01D1082BDAE70320D9E70320E5
:1056E000F5E700BF010100012DE9F04FB1F5807F22
:1056F00087B005460E4600F2CC8000F11C040091F4
:1057000023464FF400720021FFF766FF00283CD1CA
:105710002B7FB5F81EE095F820B085F83CB3092B37
:105720001CBF09232B772B7F85F838336B7F85F8D7
:10573000393395F8213085F83D3395F8223085F8D6
:105740003E33BEF5807F95F8233085F83F3328BF80
:105750004FF4807E95F82430A5F83AE3092E85F8B9
:10576000403340F2CF800020294684460922BCF114
:10577000020F0AD096450BD85B46022B28BF0223A6
:105780005FFA8CFC634500F2848007B0BDE8F08FBF
:1057900023781C441A446378042B92B2E7D123780F
:1057A000092B1CBF09232370237881F842336378C7
:1057B00081F84333A37881F84433E37881F84533A3
:1057C00094F8048081F84683637981F84733029323
:1057D000A37981F84833E67981F849630396267AFC
:1057E00081F84A63B8F1000F00F08880964550D9DF
:1057F0001A26023B06FB0CF6DBB24FF000090496BA
:10580000059323781C441A446378052B92B23CD14B
:10581000029B012B3FD1059B012B3CD8039B23B955
:105820002378092B01D009232370049E237809F1E2
:10583000010006EBC000284480F84433637880F808
:105840004533A37880F84633E37880F84733A68859
:10585000A0F84863A77980F84A7395F81DA3701ED5
:10586000B0F5007F2CBF03200020BAF1000F1DD13E
:1058700003F00303022B11D1B6F5007F88BF03208C
:10588000B9F1000F37D14FF00109C14536D2964525
:10589000B7D8032079E74FF00703C5E71BB9412EBE
:1058A00028BF0320ECE7013F0F2FE7E7BAF1010F14
:1058B00010D113F0010FF2D003F00303012B04D138
:1058C000013F0F2FEBD90320DAE7002FFBD0B6F50D
:1058D000806FE5E7BAF1020FF5D113F0030303D1AE
:1058E000082E18BF0320CBE7032BECD10FB1092EF4
:1058F000D6E71846C4E7B8F1020FCAD80CF1010C7C
:105900001A3134E7002040E7B3F5007F73B5044651
:1059100015461E4623D812B3009341F4407200F599
:105920008E730021FFF758FE90B994F81D31032BB8
:105930000ED194F81C31023BB34228BF33469BB2D0
:10594000024604F58F7491B28B4203D800232B706A
:1059500002B070BDA15C05F8011B0232F3E7032021
:10596000F6E78378012B05D14FF4A063038200236F
:105970004182436100221146FFF73EBD8378012B2F
:1059800005D14FF41063038200234182436100225A
:105990001146FFF731BD8378012B05D14FF44073D9
:1059A000038200234182436100221146FFF724BD98
:1059B0008378012B05D14FF4817303610023818229
:1059C000C38200221146FFF717BD1FB500240B4606
:1059D00011460822CDE90224CDE9004322462346A0
:1059E00000F064FB204604B010BD30B585B090F8DF
:1059F0001D530C46002D19469DF82030019418BF08
:105A00000023CDE902230123009300231A4600F06E
:105A10004DFB002005B030BD30B5002485B0CDE988
:105A200002240D460122194601950092234600F0FA
:105A30003DFB204605B030BD30B585B090F81D5314
:105A40000C46002D19469DF82030019418BF002304
:105A5000CDE90223012300930022022300F026FB5C
:105A6000002005B030BD30B5002485B0CDE902245A
:105A70000D460122194601950092022300F016FB03
:105A8000204605B030BD1FB5BDF8204002949DF8FA
:105A90001C4001949DF81840009400F0EBFA00209F
:105AA00004B010BD08B500F0F8FA002008BD10B52C
:105AB00000F56072002352F8044F240408D400EB70
:105AC000830041F40041DAB2C0F88413D0B210BDB3
:105AD0000133102BEFD14FF6FF72F7E70F299FBF6D
